{
	"contracts/access/AccessControl.sol": {
		"AccessControl": {
			"abi": [
				{
					"anonymous": false,
					"inputs": [
						{
							"indexed": true,
							"internalType": "address",
							"name": "patient",
							"type": "address"
						},
						{
							"indexed": true,
							"internalType": "address",
							"name": "doctor",
							"type": "address"
						}
					],
					"name": "AccessGranted",
					"type": "event"
				},
				{
					"anonymous": false,
					"inputs": [
						{
							"indexed": true,
							"internalType": "address",
							"name": "patient",
							"type": "address"
						},
						{
							"indexed": true,
							"internalType": "address",
							"name": "doctor",
							"type": "address"
						}
					],
					"name": "AccessRevoked",
					"type": "event"
				},
				{
					"inputs": [
						{
							"internalType": "address",
							"name": "patient",
							"type": "address"
						},
						{
							"internalType": "address",
							"name": "doctor",
							"type": "address"
						}
					],
					"name": "checkAccess",
					"outputs": [
						{
							"internalType": "bool",
							"name": "",
							"type": "bool"
						}
					],
					"stateMutability": "view",
					"type": "function"
				},
				{
					"inputs": [],
					"name": "getGrantedDoctors",
					"outputs": [
						{
							"internalType": "address[]",
							"name": "",
							"type": "address[]"
						}
					],
					"stateMutability": "view",
					"type": "function"
				},
				{
					"inputs": [
						{
							"internalType": "address",
							"name": "doctor",
							"type": "address"
						}
					],
					"name": "grant",
					"outputs": [],
					"stateMutability": "nonpayable",
					"type": "function"
				},
				{
					"inputs": [
						{
							"internalType": "address",
							"name": "doctor",
							"type": "address"
						}
					],
					"name": "revoke",
					"outputs": [],
					"stateMutability": "nonpayable",
					"type": "function"
				}
			],
			"devdoc": {
				"kind": "dev",
				"methods": {},
				"version": 1
			},
			"evm": {
				"assembly": "    /* \"contracts/access/AccessControl.sol\":57:1667  contract AccessControl {... */\n  mstore(0x40, 0x80)\n  callvalue\n  dup1\n  iszero\n  tag_1\n  jumpi\n  revert(0x00, 0x00)\ntag_1:\n  pop\n  dataSize(sub_0)\n  dup1\n  dataOffset(sub_0)\n  0x00\n  codecopy\n  0x00\n  return\nstop\n\nsub_0: assembly {\n        /* \"contracts/access/AccessControl.sol\":57:1667  contract AccessControl {... */\n      mstore(0x40, 0x80)\n      callvalue\n      dup1\n      iszero\n      tag_1\n      jumpi\n      revert(0x00, 0x00)\n    tag_1:\n      pop\n      jumpi(tag_2, lt(calldatasize, 0x04))\n      shr(0xe0, calldataload(0x00))\n      dup1\n      0xf3ad53\n      eq\n      tag_3\n      jumpi\n      dup1\n      0x62e1f745\n      eq\n      tag_4\n      jumpi\n      dup1\n      0x70284d19\n      eq\n      tag_5\n      jumpi\n      dup1\n      0x74a8f103\n      eq\n      tag_6\n      jumpi\n    tag_2:\n      revert(0x00, 0x00)\n        /* \"contracts/access/AccessControl.sol\":1545:1665  function getGrantedDoctors() external view returns (address[] memory) {... */\n    tag_3:\n      tag_7\n      tag_8\n      jump\t// in\n    tag_7:\n      mload(0x40)\n      tag_9\n      swap2\n      swap1\n      tag_10\n      jump\t// in\n    tag_9:\n      mload(0x40)\n      dup1\n      swap2\n      sub\n      swap1\n      return\n        /* \"contracts/access/AccessControl.sol\":1181:1484  function checkAccess(address patient, address doctor)... */\n    tag_4:\n      tag_11\n      0x04\n      dup1\n      calldatasize\n      sub\n      dup2\n      add\n      swap1\n      tag_12\n      swap2\n      swap1\n      tag_13\n      jump\t// in\n    tag_12:\n      tag_14\n      jump\t// in\n    tag_11:\n      mload(0x40)\n      tag_15\n      swap2\n      swap1\n      tag_16\n      jump\t// in\n    tag_15:\n      mload(0x40)\n      dup1\n      swap2\n      sub\n      swap1\n      return\n        /* \"contracts/access/AccessControl.sol\":360:661  function grant(address doctor) public {... */\n    tag_5:\n      tag_17\n      0x04\n      dup1\n      calldatasize\n      sub\n      dup2\n      add\n      swap1\n      tag_18\n      swap2\n      swap1\n      tag_19\n      jump\t// in\n    tag_18:\n      tag_20\n      jump\t// in\n    tag_17:\n      stop\n        /* \"contracts/access/AccessControl.sol\":703:1176  function revoke(address doctor) public {... */\n    tag_6:\n      tag_21\n      0x04\n      dup1\n      calldatasize\n      sub\n      dup2\n      add\n      swap1\n      tag_22\n      swap2\n      swap1\n      tag_19\n      jump\t// in\n    tag_22:\n      tag_23\n      jump\t// in\n    tag_21:\n      stop\n        /* \"contracts/access/AccessControl.sol\":1545:1665  function getGrantedDoctors() external view returns (address[] memory) {... */\n    tag_8:\n        /* \"contracts/access/AccessControl.sol\":1597:1613  address[] memory */\n      0x60\n        /* \"contracts/access/AccessControl.sol\":1632:1646  grantedDoctors */\n      0x01\n        /* \"contracts/access/AccessControl.sol\":1632:1658  grantedDoctors[msg.sender] */\n      0x00\n        /* \"contracts/access/AccessControl.sol\":1647:1657  msg.sender */\n      caller\n        /* \"contracts/access/AccessControl.sol\":1632:1658  grantedDoctors[msg.sender] */\n      0xffffffffffffffffffffffffffffffffffffffff\n      and\n      0xffffffffffffffffffffffffffffffffffffffff\n      and\n      dup2\n      mstore\n      0x20\n      add\n      swap1\n      dup2\n      mstore\n      0x20\n      add\n      0x00\n      keccak256\n        /* \"contracts/access/AccessControl.sol\":1625:1658  return grantedDoctors[msg.sender] */\n      dup1\n      sload\n      dup1\n      0x20\n      mul\n      0x20\n      add\n      mload(0x40)\n      swap1\n      dup2\n      add\n      0x40\n      mstore\n      dup1\n      swap3\n      swap2\n      swap1\n      dup2\n      dup2\n      mstore\n      0x20\n      add\n      dup3\n      dup1\n      sload\n      dup1\n      iszero\n      tag_25\n      jumpi\n      0x20\n      mul\n      dup3\n      add\n      swap2\n      swap1\n      0x00\n      mstore\n      keccak256(0x00, 0x20)\n      swap1\n    tag_26:\n      dup2\n      0x00\n      swap1\n      sload\n      swap1\n      0x0100\n      exp\n      swap1\n      div\n      0xffffffffffffffffffffffffffffffffffffffff\n      and\n      0xffffffffffffffffffffffffffffffffffffffff\n      and\n      dup2\n      mstore\n      0x20\n      add\n      swap1\n      0x01\n      add\n      swap1\n      dup1\n      dup4\n      gt\n      tag_26\n      jumpi\n    tag_25:\n      pop\n      pop\n      pop\n      pop\n      pop\n      swap1\n      pop\n        /* \"contracts/access/AccessControl.sol\":1545:1665  function getGrantedDoctors() external view returns (address[] memory) {... */\n      swap1\n      jump\t// out\n        /* \"contracts/access/AccessControl.sol\":1181:1484  function checkAccess(address patient, address doctor)... */\n    tag_14:\n        /* \"contracts/access/AccessControl.sol\":1280:1284  bool */\n      0x00\n        /* \"contracts/access/AccessControl.sol\":1315:1321  doctor */\n      dup2\n        /* \"contracts/access/AccessControl.sol\":1304:1321  patient == doctor */\n      0xffffffffffffffffffffffffffffffffffffffff\n      and\n        /* \"contracts/access/AccessControl.sol\":1304:1311  patient */\n      dup4\n        /* \"contracts/access/AccessControl.sol\":1304:1321  patient == doctor */\n      0xffffffffffffffffffffffffffffffffffffffff\n      and\n      sub\n        /* \"contracts/access/AccessControl.sol\":1300:1408  if (patient == doctor) {... */\n      tag_28\n      jumpi\n        /* \"contracts/access/AccessControl.sol\":1344:1348  true */\n      0x01\n        /* \"contracts/access/AccessControl.sol\":1337:1348  return true */\n      swap1\n      pop\n      jump(tag_27)\n        /* \"contracts/access/AccessControl.sol\":1300:1408  if (patient == doctor) {... */\n    tag_28:\n        /* \"contracts/access/AccessControl.sol\":1424:1430  access */\n      0x00\n        /* \"contracts/access/AccessControl.sol\":1424:1439  access[patient] */\n      0x00\n        /* \"contracts/access/AccessControl.sol\":1431:1438  patient */\n      dup5\n        /* \"contracts/access/AccessControl.sol\":1424:1439  access[patient] */\n      0xffffffffffffffffffffffffffffffffffffffff\n      and\n      0xffffffffffffffffffffffffffffffffffffffff\n      and\n      dup2\n      mstore\n      0x20\n      add\n      swap1\n      dup2\n      mstore\n      0x20\n      add\n      0x00\n      keccak256\n        /* \"contracts/access/AccessControl.sol\":1424:1447  access[patient][doctor] */\n      0x00\n        /* \"contracts/access/AccessControl.sol\":1440:1446  doctor */\n      dup4\n        /* \"contracts/access/AccessControl.sol\":1424:1447  access[patient][doctor] */\n      0xffffffffffffffffffffffffffffffffffffffff\n      and\n      0xffffffffffffffffffffffffffffffffffffffff\n      and\n      dup2\n      mstore\n      0x20\n      add\n      swap1\n      dup2\n      mstore\n      0x20\n      add\n      0x00\n      keccak256\n      0x00\n      swap1\n      sload\n      swap1\n      0x0100\n      exp\n      swap1\n      div\n      0xff\n      and\n        /* \"contracts/access/AccessControl.sol\":1417:1447  return access[patient][doctor] */\n      swap1\n      pop\n        /* \"contracts/access/AccessControl.sol\":1181:1484  function checkAccess(address patient, address doctor)... */\n    tag_27:\n      swap3\n      swap2\n      pop\n      pop\n      jump\t// out\n        /* \"contracts/access/AccessControl.sol\":360:661  function grant(address doctor) public {... */\n    tag_20:\n        /* \"contracts/access/AccessControl.sol\":413:419  access */\n      0x00\n        /* \"contracts/access/AccessControl.sol\":413:431  access[msg.sender] */\n      0x00\n        /* \"contracts/access/AccessControl.sol\":420:430  msg.sender */\n      caller\n        /* \"contracts/access/AccessControl.sol\":413:431  access[msg.sender] */\n      0xffffffffffffffffffffffffffffffffffffffff\n      and\n      0xffffffffffffffffffffffffffffffffffffffff\n      and\n      dup2\n      mstore\n      0x20\n      add\n      swap1\n      dup2\n      mstore\n      0x20\n      add\n      0x00\n      keccak256\n        /* \"contracts/access/AccessControl.sol\":413:439  access[msg.sender][doctor] */\n      0x00\n        /* \"contracts/access/AccessControl.sol\":432:438  doctor */\n      dup3\n        /* \"contracts/access/AccessControl.sol\":413:439  access[msg.sender][doctor] */\n      0xffffffffffffffffffffffffffffffffffffffff\n      and\n      0xffffffffffffffffffffffffffffffffffffffff\n      and\n      dup2\n      mstore\n      0x20\n      add\n      swap1\n      dup2\n      mstore\n      0x20\n      add\n      0x00\n      keccak256\n      0x00\n      swap1\n      sload\n      swap1\n      0x0100\n      exp\n      swap1\n      div\n      0xff\n      and\n        /* \"contracts/access/AccessControl.sol\":408:655  if (!access[msg.sender][doctor]) {... */\n      tag_30\n      jumpi\n        /* \"contracts/access/AccessControl.sol\":484:488  true */\n      0x01\n        /* \"contracts/access/AccessControl.sol\":455:461  access */\n      0x00\n        /* \"contracts/access/AccessControl.sol\":455:473  access[msg.sender] */\n      0x00\n        /* \"contracts/access/AccessControl.sol\":462:472  msg.sender */\n      caller\n        /* \"contracts/access/AccessControl.sol\":455:473  access[msg.sender] */\n      0xffffffffffffffffffffffffffffffffffffffff\n      and\n      0xffffffffffffffffffffffffffffffffffffffff\n      and\n      dup2\n      mstore\n      0x20\n      add\n      swap1\n      dup2\n      mstore\n      0x20\n      add\n      0x00\n      keccak256\n        /* \"contracts/access/AccessControl.sol\":455:481  access[msg.sender][doctor] */\n      0x00\n        /* \"contracts/access/AccessControl.sol\":474:480  doctor */\n      dup4\n        /* \"contracts/access/AccessControl.sol\":455:481  access[msg.sender][doctor] */\n      0xffffffffffffffffffffffffffffffffffffffff\n      and\n      0xffffffffffffffffffffffffffffffffffffffff\n      and\n      dup2\n      mstore\n      0x20\n      add\n      swap1\n      dup2\n      mstore\n      0x20\n      add\n      0x00\n      keccak256\n      0x00\n        /* \"contracts/access/AccessControl.sol\":455:488  access[msg.sender][doctor] = true */\n      0x0100\n      exp\n      dup2\n      sload\n      dup2\n      0xff\n      mul\n      not\n      and\n      swap1\n      dup4\n      iszero\n      iszero\n      mul\n      or\n      swap1\n      sstore\n      pop\n        /* \"contracts/access/AccessControl.sol\":534:548  grantedDoctors */\n      0x01\n        /* \"contracts/access/AccessControl.sol\":534:560  grantedDoctors[msg.sender] */\n      0x00\n        /* \"contracts/access/AccessControl.sol\":549:559  msg.sender */\n      caller\n        /* \"contracts/access/AccessControl.sol\":534:560  grantedDoctors[msg.sender] */\n      0xffffffffffffffffffffffffffffffffffffffff\n      and\n      0xffffffffffffffffffffffffffffffffffffffff\n      and\n      dup2\n      mstore\n      0x20\n      add\n      swap1\n      dup2\n      mstore\n      0x20\n      add\n      0x00\n      keccak256\n        /* \"contracts/access/AccessControl.sol\":566:572  doctor */\n      dup2\n        /* \"contracts/access/AccessControl.sol\":534:573  grantedDoctors[msg.sender].push(doctor) */\n      swap1\n      dup1\n      0x01\n      dup2\n      sload\n      add\n      dup1\n      dup3\n      sstore\n      dup1\n      swap2\n      pop\n      pop\n      0x01\n      swap1\n      sub\n      swap1\n      0x00\n      mstore\n      keccak256(0x00, 0x20)\n      add\n      0x00\n      swap1\n      swap2\n      swap1\n      swap2\n      swap1\n      swap2\n      0x0100\n      exp\n      dup2\n      sload\n      dup2\n      0xffffffffffffffffffffffffffffffffffffffff\n      mul\n      not\n      and\n      swap1\n      dup4\n      0xffffffffffffffffffffffffffffffffffffffff\n      and\n      mul\n      or\n      swap1\n      sstore\n      pop\n        /* \"contracts/access/AccessControl.sol\":637:643  doctor */\n      dup1\n        /* \"contracts/access/AccessControl.sol\":611:644  AccessGranted(msg.sender, doctor) */\n      0xffffffffffffffffffffffffffffffffffffffff\n      and\n        /* \"contracts/access/AccessControl.sol\":625:635  msg.sender */\n      caller\n        /* \"contracts/access/AccessControl.sol\":611:644  AccessGranted(msg.sender, doctor) */\n      0xffffffffffffffffffffffffffffffffffffffff\n      and\n      0x9f520b3bfc56d06f7065d10b4683b3f57ac8895d5026cd176dee95ce1454cb8d\n      mload(0x40)\n      mload(0x40)\n      dup1\n      swap2\n      sub\n      swap1\n      log3\n        /* \"contracts/access/AccessControl.sol\":408:655  if (!access[msg.sender][doctor]) {... */\n    tag_30:\n        /* \"contracts/access/AccessControl.sol\":360:661  function grant(address doctor) public {... */\n      pop\n      jump\t// out\n        /* \"contracts/access/AccessControl.sol\":703:1176  function revoke(address doctor) public {... */\n    tag_23:\n        /* \"contracts/access/AccessControl.sol\":752:758  access */\n      0x00\n        /* \"contracts/access/AccessControl.sol\":752:770  access[msg.sender] */\n      0x00\n        /* \"contracts/access/AccessControl.sol\":759:769  msg.sender */\n      caller\n        /* \"contracts/access/AccessControl.sol\":752:770  access[msg.sender] */\n      0xffffffffffffffffffffffffffffffffffffffff\n      and\n      0xffffffffffffffffffffffffffffffffffffffff\n      and\n      dup2\n      mstore\n      0x20\n      add\n      swap1\n      dup2\n      mstore\n      0x20\n      add\n      0x00\n      keccak256\n        /* \"contracts/access/AccessControl.sol\":752:778  access[msg.sender][doctor] */\n      0x00\n        /* \"contracts/access/AccessControl.sol\":771:777  doctor */\n      dup3\n        /* \"contracts/access/AccessControl.sol\":752:778  access[msg.sender][doctor] */\n      0xffffffffffffffffffffffffffffffffffffffff\n      and\n      0xffffffffffffffffffffffffffffffffffffffff\n      and\n      dup2\n      mstore\n      0x20\n      add\n      swap1\n      dup2\n      mstore\n      0x20\n      add\n      0x00\n      keccak256\n      0x00\n      swap1\n      sload\n      swap1\n      0x0100\n      exp\n      swap1\n      div\n      0xff\n      and\n        /* \"contracts/access/AccessControl.sol\":748:1174  if (access[msg.sender][doctor]) {... */\n      iszero\n      tag_33\n      jumpi\n        /* \"contracts/access/AccessControl.sol\":819:824  false */\n      0x00\n        /* \"contracts/access/AccessControl.sol\":790:796  access */\n      0x00\n        /* \"contracts/access/AccessControl.sol\":790:808  access[msg.sender] */\n      0x00\n        /* \"contracts/access/AccessControl.sol\":797:807  msg.sender */\n      caller\n        /* \"contracts/access/AccessControl.sol\":790:808  access[msg.sender] */\n      0xffffffffffffffffffffffffffffffffffffffff\n      and\n      0xffffffffffffffffffffffffffffffffffffffff\n      and\n      dup2\n      mstore\n      0x20\n      add\n      swap1\n      dup2\n      mstore\n      0x20\n      add\n      0x00\n      keccak256\n        /* \"contracts/access/AccessControl.sol\":790:816  access[msg.sender][doctor] */\n      0x00\n        /* \"contracts/access/AccessControl.sol\":809:815  doctor */\n      dup4\n        /* \"contracts/access/AccessControl.sol\":790:816  access[msg.sender][doctor] */\n      0xffffffffffffffffffffffffffffffffffffffff\n      and\n      0xffffffffffffffffffffffffffffffffffffffff\n      and\n      dup2\n      mstore\n      0x20\n      add\n      swap1\n      dup2\n      mstore\n      0x20\n      add\n      0x00\n      keccak256\n      0x00\n        /* \"contracts/access/AccessControl.sol\":790:824  access[msg.sender][doctor] = false */\n      0x0100\n      exp\n      dup2\n      sload\n      dup2\n      0xff\n      mul\n      not\n      and\n      swap1\n      dup4\n      iszero\n      iszero\n      mul\n      or\n      swap1\n      sstore\n      pop\n        /* \"contracts/access/AccessControl.sol\":835:860  address[] storage doctors */\n      0x00\n        /* \"contracts/access/AccessControl.sol\":863:877  grantedDoctors */\n      0x01\n        /* \"contracts/access/AccessControl.sol\":863:889  grantedDoctors[msg.sender] */\n      0x00\n        /* \"contracts/access/AccessControl.sol\":878:888  msg.sender */\n      caller\n        /* \"contracts/access/AccessControl.sol\":863:889  grantedDoctors[msg.sender] */\n      0xffffffffffffffffffffffffffffffffffffffff\n      and\n      0xffffffffffffffffffffffffffffffffffffffff\n      and\n      dup2\n      mstore\n      0x20\n      add\n      swap1\n      dup2\n      mstore\n      0x20\n      add\n      0x00\n      keccak256\n        /* \"contracts/access/AccessControl.sol\":835:889  address[] storage doctors = grantedDoctors[msg.sender] */\n      swap1\n      pop\n        /* \"contracts/access/AccessControl.sol\":904:910  uint i */\n      0x00\n        /* \"contracts/access/AccessControl.sol\":913:914  0 */\n      0x00\n        /* \"contracts/access/AccessControl.sol\":904:914  uint i = 0 */\n      swap1\n      pop\n        /* \"contracts/access/AccessControl.sol\":899:1119  for (uint i = 0; i < doctors.length; i++) {... */\n    tag_34:\n        /* \"contracts/access/AccessControl.sol\":920:927  doctors */\n      dup2\n        /* \"contracts/access/AccessControl.sol\":920:934  doctors.length */\n      dup1\n      sload\n      swap1\n      pop\n        /* \"contracts/access/AccessControl.sol\":916:917  i */\n      dup2\n        /* \"contracts/access/AccessControl.sol\":916:934  i < doctors.length */\n      lt\n        /* \"contracts/access/AccessControl.sol\":899:1119  for (uint i = 0; i < doctors.length; i++) {... */\n      iszero\n      tag_35\n      jumpi\n        /* \"contracts/access/AccessControl.sol\":973:979  doctor */\n      dup3\n        /* \"contracts/access/AccessControl.sol\":959:979  doctors[i] == doctor */\n      0xffffffffffffffffffffffffffffffffffffffff\n      and\n        /* \"contracts/access/AccessControl.sol\":959:966  doctors */\n      dup3\n        /* \"contracts/access/AccessControl.sol\":967:968  i */\n      dup3\n        /* \"contracts/access/AccessControl.sol\":959:969  doctors[i] */\n      dup2\n      sload\n      dup2\n      lt\n      tag_37\n      jumpi\n      tag_38\n      tag_39\n      jump\t// in\n    tag_38:\n    tag_37:\n      swap1\n      0x00\n      mstore\n      keccak256(0x00, 0x20)\n      add\n      0x00\n      swap1\n      sload\n      swap1\n      0x0100\n      exp\n      swap1\n      div\n      0xffffffffffffffffffffffffffffffffffffffff\n      and\n        /* \"contracts/access/AccessControl.sol\":959:979  doctors[i] == doctor */\n      0xffffffffffffffffffffffffffffffffffffffff\n      and\n      sub\n        /* \"contracts/access/AccessControl.sol\":955:1109  if (doctors[i] == doctor) {... */\n      tag_41\n      jumpi\n        /* \"contracts/access/AccessControl.sol\":1012:1019  doctors */\n      dup2\n        /* \"contracts/access/AccessControl.sol\":1037:1038  1 */\n      0x01\n        /* \"contracts/access/AccessControl.sol\":1020:1027  doctors */\n      dup4\n        /* \"contracts/access/AccessControl.sol\":1020:1034  doctors.length */\n      dup1\n      sload\n      swap1\n      pop\n        /* \"contracts/access/AccessControl.sol\":1020:1038  doctors.length - 1 */\n      tag_42\n      swap2\n      swap1\n      tag_43\n      jump\t// in\n    tag_42:\n        /* \"contracts/access/AccessControl.sol\":1012:1039  doctors[doctors.length - 1] */\n      dup2\n      sload\n      dup2\n      lt\n      tag_44\n      jumpi\n      tag_45\n      tag_39\n      jump\t// in\n    tag_45:\n    tag_44:\n      swap1\n      0x00\n      mstore\n      keccak256(0x00, 0x20)\n      add\n      0x00\n      swap1\n      sload\n      swap1\n      0x0100\n      exp\n      swap1\n      div\n      0xffffffffffffffffffffffffffffffffffffffff\n      and\n        /* \"contracts/access/AccessControl.sol\":999:1006  doctors */\n      dup3\n        /* \"contracts/access/AccessControl.sol\":1007:1008  i */\n      dup3\n        /* \"contracts/access/AccessControl.sol\":999:1009  doctors[i] */\n      dup2\n      sload\n      dup2\n      lt\n      tag_47\n      jumpi\n      tag_48\n      tag_39\n      jump\t// in\n    tag_48:\n    tag_47:\n      swap1\n      0x00\n      mstore\n      keccak256(0x00, 0x20)\n      add\n      0x00\n        /* \"contracts/access/AccessControl.sol\":999:1039  doctors[i] = doctors[doctors.length - 1] */\n      0x0100\n      exp\n      dup2\n      sload\n      dup2\n      0xffffffffffffffffffffffffffffffffffffffff\n      mul\n      not\n      and\n      swap1\n      dup4\n      0xffffffffffffffffffffffffffffffffffffffff\n      and\n      mul\n      or\n      swap1\n      sstore\n      pop\n        /* \"contracts/access/AccessControl.sol\":1057:1064  doctors */\n      dup2\n        /* \"contracts/access/AccessControl.sol\":1057:1070  doctors.pop() */\n      dup1\n      sload\n      dup1\n      tag_50\n      jumpi\n      tag_51\n      tag_52\n      jump\t// in\n    tag_51:\n    tag_50:\n      0x01\n      swap1\n      sub\n      dup2\n      dup2\n      swap1\n      0x00\n      mstore\n      keccak256(0x00, 0x20)\n      add\n      exp(0x0100, 0x00)\n      dup2\n      sload\n      swap1\n      0xffffffffffffffffffffffffffffffffffffffff\n      mul\n      not\n      and\n      swap1\n      sstore\n      swap1\n      sstore\n        /* \"contracts/access/AccessControl.sol\":1089:1094  break */\n      jump(tag_35)\n        /* \"contracts/access/AccessControl.sol\":955:1109  if (doctors[i] == doctor) {... */\n    tag_41:\n        /* \"contracts/access/AccessControl.sol\":936:939  i++ */\n      dup1\n      dup1\n      0x01\n      add\n      swap2\n      pop\n      pop\n        /* \"contracts/access/AccessControl.sol\":899:1119  for (uint i = 0; i < doctors.length; i++) {... */\n      jump(tag_34)\n    tag_35:\n      pop\n        /* \"contracts/access/AccessControl.sol\":1160:1166  doctor */\n      dup2\n        /* \"contracts/access/AccessControl.sol\":1134:1167  AccessRevoked(msg.sender, doctor) */\n      0xffffffffffffffffffffffffffffffffffffffff\n      and\n        /* \"contracts/access/AccessControl.sol\":1148:1158  msg.sender */\n      caller\n        /* \"contracts/access/AccessControl.sol\":1134:1167  AccessRevoked(msg.sender, doctor) */\n      0xffffffffffffffffffffffffffffffffffffffff\n      and\n      0x825c8be24eb0df19500f63e86c29e7d0d951e73056b889b891d85e40938d9b6e\n      mload(0x40)\n      mload(0x40)\n      dup1\n      swap2\n      sub\n      swap1\n      log3\n        /* \"contracts/access/AccessControl.sol\":780:1174  {... */\n      pop\n        /* \"contracts/access/AccessControl.sol\":748:1174  if (access[msg.sender][doctor]) {... */\n    tag_33:\n        /* \"contracts/access/AccessControl.sol\":703:1176  function revoke(address doctor) public {... */\n      pop\n      jump\t// out\n        /* \"#utility.yul\":7:121   */\n    tag_54:\n        /* \"#utility.yul\":74:80   */\n      0x00\n        /* \"#utility.yul\":108:113   */\n      dup2\n        /* \"#utility.yul\":102:114   */\n      mload\n        /* \"#utility.yul\":92:114   */\n      swap1\n      pop\n        /* \"#utility.yul\":7:121   */\n      swap2\n      swap1\n      pop\n      jump\t// out\n        /* \"#utility.yul\":127:311   */\n    tag_55:\n        /* \"#utility.yul\":226:237   */\n      0x00\n        /* \"#utility.yul\":260:266   */\n      dup3\n        /* \"#utility.yul\":255:258   */\n      dup3\n        /* \"#utility.yul\":248:267   */\n      mstore\n        /* \"#utility.yul\":300:304   */\n      0x20\n        /* \"#utility.yul\":295:298   */\n      dup3\n        /* \"#utility.yul\":291:305   */\n      add\n        /* \"#utility.yul\":276:305   */\n      swap1\n      pop\n        /* \"#utility.yul\":127:311   */\n      swap3\n      swap2\n      pop\n      pop\n      jump\t// out\n        /* \"#utility.yul\":317:449   */\n    tag_56:\n        /* \"#utility.yul\":384:388   */\n      0x00\n        /* \"#utility.yul\":407:410   */\n      dup2\n        /* \"#utility.yul\":399:410   */\n      swap1\n      pop\n        /* \"#utility.yul\":437:441   */\n      0x20\n        /* \"#utility.yul\":432:435   */\n      dup3\n        /* \"#utility.yul\":428:442   */\n      add\n        /* \"#utility.yul\":420:442   */\n      swap1\n      pop\n        /* \"#utility.yul\":317:449   */\n      swap2\n      swap1\n      pop\n      jump\t// out\n        /* \"#utility.yul\":455:581   */\n    tag_57:\n        /* \"#utility.yul\":492:499   */\n      0x00\n        /* \"#utility.yul\":532:574   */\n      0xffffffffffffffffffffffffffffffffffffffff\n        /* \"#utility.yul\":525:530   */\n      dup3\n        /* \"#utility.yul\":521:575   */\n      and\n        /* \"#utility.yul\":510:575   */\n      swap1\n      pop\n        /* \"#utility.yul\":455:581   */\n      swap2\n      swap1\n      pop\n      jump\t// out\n        /* \"#utility.yul\":587:683   */\n    tag_58:\n        /* \"#utility.yul\":624:631   */\n      0x00\n        /* \"#utility.yul\":653:677   */\n      tag_78\n        /* \"#utility.yul\":671:676   */\n      dup3\n        /* \"#utility.yul\":653:677   */\n      tag_57\n      jump\t// in\n    tag_78:\n        /* \"#utility.yul\":642:677   */\n      swap1\n      pop\n        /* \"#utility.yul\":587:683   */\n      swap2\n      swap1\n      pop\n      jump\t// out\n        /* \"#utility.yul\":689:797   */\n    tag_59:\n        /* \"#utility.yul\":766:790   */\n      tag_80\n        /* \"#utility.yul\":784:789   */\n      dup2\n        /* \"#utility.yul\":766:790   */\n      tag_58\n      jump\t// in\n    tag_80:\n        /* \"#utility.yul\":761:764   */\n      dup3\n        /* \"#utility.yul\":754:791   */\n      mstore\n        /* \"#utility.yul\":689:797   */\n      pop\n      pop\n      jump\t// out\n        /* \"#utility.yul\":803:982   */\n    tag_60:\n        /* \"#utility.yul\":872:882   */\n      0x00\n        /* \"#utility.yul\":893:939   */\n      tag_82\n        /* \"#utility.yul\":935:938   */\n      dup4\n        /* \"#utility.yul\":927:933   */\n      dup4\n        /* \"#utility.yul\":893:939   */\n      tag_59\n      jump\t// in\n    tag_82:\n        /* \"#utility.yul\":971:975   */\n      0x20\n        /* \"#utility.yul\":966:969   */\n      dup4\n        /* \"#utility.yul\":962:976   */\n      add\n        /* \"#utility.yul\":948:976   */\n      swap1\n      pop\n        /* \"#utility.yul\":803:982   */\n      swap3\n      swap2\n      pop\n      pop\n      jump\t// out\n        /* \"#utility.yul\":988:1101   */\n    tag_61:\n        /* \"#utility.yul\":1058:1062   */\n      0x00\n        /* \"#utility.yul\":1090:1094   */\n      0x20\n        /* \"#utility.yul\":1085:1088   */\n      dup3\n        /* \"#utility.yul\":1081:1095   */\n      add\n        /* \"#utility.yul\":1073:1095   */\n      swap1\n      pop\n        /* \"#utility.yul\":988:1101   */\n      swap2\n      swap1\n      pop\n      jump\t// out\n        /* \"#utility.yul\":1137:1869   */\n    tag_62:\n        /* \"#utility.yul\":1256:1259   */\n      0x00\n        /* \"#utility.yul\":1285:1339   */\n      tag_85\n        /* \"#utility.yul\":1333:1338   */\n      dup3\n        /* \"#utility.yul\":1285:1339   */\n      tag_54\n      jump\t// in\n    tag_85:\n        /* \"#utility.yul\":1355:1441   */\n      tag_86\n        /* \"#utility.yul\":1434:1440   */\n      dup2\n        /* \"#utility.yul\":1429:1432   */\n      dup6\n        /* \"#utility.yul\":1355:1441   */\n      tag_55\n      jump\t// in\n    tag_86:\n        /* \"#utility.yul\":1348:1441   */\n      swap4\n      pop\n        /* \"#utility.yul\":1465:1521   */\n      tag_87\n        /* \"#utility.yul\":1515:1520   */\n      dup4\n        /* \"#utility.yul\":1465:1521   */\n      tag_56\n      jump\t// in\n    tag_87:\n        /* \"#utility.yul\":1544:1551   */\n      dup1\n        /* \"#utility.yul\":1575:1576   */\n      0x00\n        /* \"#utility.yul\":1560:1844   */\n    tag_88:\n        /* \"#utility.yul\":1585:1591   */\n      dup4\n        /* \"#utility.yul\":1582:1583   */\n      dup2\n        /* \"#utility.yul\":1579:1592   */\n      lt\n        /* \"#utility.yul\":1560:1844   */\n      iszero\n      tag_90\n      jumpi\n        /* \"#utility.yul\":1661:1667   */\n      dup2\n        /* \"#utility.yul\":1655:1668   */\n      mload\n        /* \"#utility.yul\":1688:1751   */\n      tag_91\n        /* \"#utility.yul\":1747:1750   */\n      dup9\n        /* \"#utility.yul\":1732:1745   */\n      dup3\n        /* \"#utility.yul\":1688:1751   */\n      tag_60\n      jump\t// in\n    tag_91:\n        /* \"#utility.yul\":1681:1751   */\n      swap8\n      pop\n        /* \"#utility.yul\":1774:1834   */\n      tag_92\n        /* \"#utility.yul\":1827:1833   */\n      dup4\n        /* \"#utility.yul\":1774:1834   */\n      tag_61\n      jump\t// in\n    tag_92:\n        /* \"#utility.yul\":1764:1834   */\n      swap3\n      pop\n        /* \"#utility.yul\":1620:1844   */\n      pop\n        /* \"#utility.yul\":1607:1608   */\n      0x01\n        /* \"#utility.yul\":1604:1605   */\n      dup2\n        /* \"#utility.yul\":1600:1609   */\n      add\n        /* \"#utility.yul\":1595:1609   */\n      swap1\n      pop\n        /* \"#utility.yul\":1560:1844   */\n      jump(tag_88)\n    tag_90:\n        /* \"#utility.yul\":1564:1578   */\n      pop\n        /* \"#utility.yul\":1860:1863   */\n      dup6\n        /* \"#utility.yul\":1853:1863   */\n      swap4\n      pop\n        /* \"#utility.yul\":1261:1869   */\n      pop\n      pop\n      pop\n        /* \"#utility.yul\":1137:1869   */\n      swap3\n      swap2\n      pop\n      pop\n      jump\t// out\n        /* \"#utility.yul\":1875:2248   */\n    tag_10:\n        /* \"#utility.yul\":2018:2022   */\n      0x00\n        /* \"#utility.yul\":2056:2058   */\n      0x20\n        /* \"#utility.yul\":2045:2054   */\n      dup3\n        /* \"#utility.yul\":2041:2059   */\n      add\n        /* \"#utility.yul\":2033:2059   */\n      swap1\n      pop\n        /* \"#utility.yul\":2105:2114   */\n      dup2\n        /* \"#utility.yul\":2099:2103   */\n      dup2\n        /* \"#utility.yul\":2095:2115   */\n      sub\n        /* \"#utility.yul\":2091:2092   */\n      0x00\n        /* \"#utility.yul\":2080:2089   */\n      dup4\n        /* \"#utility.yul\":2076:2093   */\n      add\n        /* \"#utility.yul\":2069:2116   */\n      mstore\n        /* \"#utility.yul\":2133:2241   */\n      tag_94\n        /* \"#utility.yul\":2236:2240   */\n      dup2\n        /* \"#utility.yul\":2227:2233   */\n      dup5\n        /* \"#utility.yul\":2133:2241   */\n      tag_62\n      jump\t// in\n    tag_94:\n        /* \"#utility.yul\":2125:2241   */\n      swap1\n      pop\n        /* \"#utility.yul\":1875:2248   */\n      swap3\n      swap2\n      pop\n      pop\n      jump\t// out\n        /* \"#utility.yul\":2335:2452   */\n    tag_64:\n        /* \"#utility.yul\":2444:2445   */\n      0x00\n        /* \"#utility.yul\":2441:2442   */\n      0x00\n        /* \"#utility.yul\":2434:2446   */\n      revert\n        /* \"#utility.yul\":2581:2703   */\n    tag_66:\n        /* \"#utility.yul\":2654:2678   */\n      tag_99\n        /* \"#utility.yul\":2672:2677   */\n      dup2\n        /* \"#utility.yul\":2654:2678   */\n      tag_58\n      jump\t// in\n    tag_99:\n        /* \"#utility.yul\":2647:2652   */\n      dup2\n        /* \"#utility.yul\":2644:2679   */\n      eq\n        /* \"#utility.yul\":2634:2697   */\n      tag_100\n      jumpi\n        /* \"#utility.yul\":2693:2694   */\n      0x00\n        /* \"#utility.yul\":2690:2691   */\n      0x00\n        /* \"#utility.yul\":2683:2695   */\n      revert\n        /* \"#utility.yul\":2634:2697   */\n    tag_100:\n        /* \"#utility.yul\":2581:2703   */\n      pop\n      jump\t// out\n        /* \"#utility.yul\":2709:2848   */\n    tag_67:\n        /* \"#utility.yul\":2755:2760   */\n      0x00\n        /* \"#utility.yul\":2793:2799   */\n      dup2\n        /* \"#utility.yul\":2780:2800   */\n      calldataload\n        /* \"#utility.yul\":2771:2800   */\n      swap1\n      pop\n        /* \"#utility.yul\":2809:2842   */\n      tag_102\n        /* \"#utility.yul\":2836:2841   */\n      dup2\n        /* \"#utility.yul\":2809:2842   */\n      tag_66\n      jump\t// in\n    tag_102:\n        /* \"#utility.yul\":2709:2848   */\n      swap3\n      swap2\n      pop\n      pop\n      jump\t// out\n        /* \"#utility.yul\":2854:3328   */\n    tag_13:\n        /* \"#utility.yul\":2922:2928   */\n      0x00\n        /* \"#utility.yul\":2930:2936   */\n      0x00\n        /* \"#utility.yul\":2979:2981   */\n      0x40\n        /* \"#utility.yul\":2967:2976   */\n      dup4\n        /* \"#utility.yul\":2958:2965   */\n      dup6\n        /* \"#utility.yul\":2954:2977   */\n      sub\n        /* \"#utility.yul\":2950:2982   */\n      slt\n        /* \"#utility.yul\":2947:3066   */\n      iszero\n      tag_104\n      jumpi\n        /* \"#utility.yul\":2985:3064   */\n      tag_105\n      tag_64\n      jump\t// in\n    tag_105:\n        /* \"#utility.yul\":2947:3066   */\n    tag_104:\n        /* \"#utility.yul\":3105:3106   */\n      0x00\n        /* \"#utility.yul\":3130:3183   */\n      tag_106\n        /* \"#utility.yul\":3175:3182   */\n      dup6\n        /* \"#utility.yul\":3166:3172   */\n      dup3\n        /* \"#utility.yul\":3155:3164   */\n      dup7\n        /* \"#utility.yul\":3151:3173   */\n      add\n        /* \"#utility.yul\":3130:3183   */\n      tag_67\n      jump\t// in\n    tag_106:\n        /* \"#utility.yul\":3120:3183   */\n      swap3\n      pop\n        /* \"#utility.yul\":3076:3193   */\n      pop\n        /* \"#utility.yul\":3232:3234   */\n      0x20\n        /* \"#utility.yul\":3258:3311   */\n      tag_107\n        /* \"#utility.yul\":3303:3310   */\n      dup6\n        /* \"#utility.yul\":3294:3300   */\n      dup3\n        /* \"#utility.yul\":3283:3292   */\n      dup7\n        /* \"#utility.yul\":3279:3301   */\n      add\n        /* \"#utility.yul\":3258:3311   */\n      tag_67\n      jump\t// in\n    tag_107:\n        /* \"#utility.yul\":3248:3311   */\n      swap2\n      pop\n        /* \"#utility.yul\":3203:3321   */\n      pop\n        /* \"#utility.yul\":2854:3328   */\n      swap3\n      pop\n      swap3\n      swap1\n      pop\n      jump\t// out\n        /* \"#utility.yul\":3334:3424   */\n    tag_68:\n        /* \"#utility.yul\":3368:3375   */\n      0x00\n        /* \"#utility.yul\":3411:3416   */\n      dup2\n        /* \"#utility.yul\":3404:3417   */\n      iszero\n        /* \"#utility.yul\":3397:3418   */\n      iszero\n        /* \"#utility.yul\":3386:3418   */\n      swap1\n      pop\n        /* \"#utility.yul\":3334:3424   */\n      swap2\n      swap1\n      pop\n      jump\t// out\n        /* \"#utility.yul\":3430:3539   */\n    tag_69:\n        /* \"#utility.yul\":3511:3532   */\n      tag_110\n        /* \"#utility.yul\":3526:3531   */\n      dup2\n        /* \"#utility.yul\":3511:3532   */\n      tag_68\n      jump\t// in\n    tag_110:\n        /* \"#utility.yul\":3506:3509   */\n      dup3\n        /* \"#utility.yul\":3499:3533   */\n      mstore\n        /* \"#utility.yul\":3430:3539   */\n      pop\n      pop\n      jump\t// out\n        /* \"#utility.yul\":3545:3755   */\n    tag_16:\n        /* \"#utility.yul\":3632:3636   */\n      0x00\n        /* \"#utility.yul\":3670:3672   */\n      0x20\n        /* \"#utility.yul\":3659:3668   */\n      dup3\n        /* \"#utility.yul\":3655:3673   */\n      add\n        /* \"#utility.yul\":3647:3673   */\n      swap1\n      pop\n        /* \"#utility.yul\":3683:3748   */\n      tag_112\n        /* \"#utility.yul\":3745:3746   */\n      0x00\n        /* \"#utility.yul\":3734:3743   */\n      dup4\n        /* \"#utility.yul\":3730:3747   */\n      add\n        /* \"#utility.yul\":3721:3727   */\n      dup5\n        /* \"#utility.yul\":3683:3748   */\n      tag_69\n      jump\t// in\n    tag_112:\n        /* \"#utility.yul\":3545:3755   */\n      swap3\n      swap2\n      pop\n      pop\n      jump\t// out\n        /* \"#utility.yul\":3761:4090   */\n    tag_19:\n        /* \"#utility.yul\":3820:3826   */\n      0x00\n        /* \"#utility.yul\":3869:3871   */\n      0x20\n        /* \"#utility.yul\":3857:3866   */\n      dup3\n        /* \"#utility.yul\":3848:3855   */\n      dup5\n        /* \"#utility.yul\":3844:3867   */\n      sub\n        /* \"#utility.yul\":3840:3872   */\n      slt\n        /* \"#utility.yul\":3837:3956   */\n      iszero\n      tag_114\n      jumpi\n        /* \"#utility.yul\":3875:3954   */\n      tag_115\n      tag_64\n      jump\t// in\n    tag_115:\n        /* \"#utility.yul\":3837:3956   */\n    tag_114:\n        /* \"#utility.yul\":3995:3996   */\n      0x00\n        /* \"#utility.yul\":4020:4073   */\n      tag_116\n        /* \"#utility.yul\":4065:4072   */\n      dup5\n        /* \"#utility.yul\":4056:4062   */\n      dup3\n        /* \"#utility.yul\":4045:4054   */\n      dup6\n        /* \"#utility.yul\":4041:4063   */\n      add\n        /* \"#utility.yul\":4020:4073   */\n      tag_67\n      jump\t// in\n    tag_116:\n        /* \"#utility.yul\":4010:4073   */\n      swap2\n      pop\n        /* \"#utility.yul\":3966:4083   */\n      pop\n        /* \"#utility.yul\":3761:4090   */\n      swap3\n      swap2\n      pop\n      pop\n      jump\t// out\n        /* \"#utility.yul\":4096:4276   */\n    tag_39:\n        /* \"#utility.yul\":4144:4221   */\n      0x4e487b7100000000000000000000000000000000000000000000000000000000\n        /* \"#utility.yul\":4141:4142   */\n      0x00\n        /* \"#utility.yul\":4134:4222   */\n      mstore\n        /* \"#utility.yul\":4241:4245   */\n      0x32\n        /* \"#utility.yul\":4238:4239   */\n      0x04\n        /* \"#utility.yul\":4231:4246   */\n      mstore\n        /* \"#utility.yul\":4265:4269   */\n      0x24\n        /* \"#utility.yul\":4262:4263   */\n      0x00\n        /* \"#utility.yul\":4255:4270   */\n      revert\n        /* \"#utility.yul\":4282:4359   */\n    tag_70:\n        /* \"#utility.yul\":4319:4326   */\n      0x00\n        /* \"#utility.yul\":4348:4353   */\n      dup2\n        /* \"#utility.yul\":4337:4353   */\n      swap1\n      pop\n        /* \"#utility.yul\":4282:4359   */\n      swap2\n      swap1\n      pop\n      jump\t// out\n        /* \"#utility.yul\":4365:4545   */\n    tag_71:\n        /* \"#utility.yul\":4413:4490   */\n      0x4e487b7100000000000000000000000000000000000000000000000000000000\n        /* \"#utility.yul\":4410:4411   */\n      0x00\n        /* \"#utility.yul\":4403:4491   */\n      mstore\n        /* \"#utility.yul\":4510:4514   */\n      0x11\n        /* \"#utility.yul\":4507:4508   */\n      0x04\n        /* \"#utility.yul\":4500:4515   */\n      mstore\n        /* \"#utility.yul\":4534:4538   */\n      0x24\n        /* \"#utility.yul\":4531:4532   */\n      0x00\n        /* \"#utility.yul\":4524:4539   */\n      revert\n        /* \"#utility.yul\":4551:4745   */\n    tag_43:\n        /* \"#utility.yul\":4591:4595   */\n      0x00\n        /* \"#utility.yul\":4611:4631   */\n      tag_121\n        /* \"#utility.yul\":4629:4630   */\n      dup3\n        /* \"#utility.yul\":4611:4631   */\n      tag_70\n      jump\t// in\n    tag_121:\n        /* \"#utility.yul\":4606:4631   */\n      swap2\n      pop\n        /* \"#utility.yul\":4645:4665   */\n      tag_122\n        /* \"#utility.yul\":4663:4664   */\n      dup4\n        /* \"#utility.yul\":4645:4665   */\n      tag_70\n      jump\t// in\n    tag_122:\n        /* \"#utility.yul\":4640:4665   */\n      swap3\n      pop\n        /* \"#utility.yul\":4689:4690   */\n      dup3\n        /* \"#utility.yul\":4686:4687   */\n      dup3\n        /* \"#utility.yul\":4682:4691   */\n      sub\n        /* \"#utility.yul\":4674:4691   */\n      swap1\n      pop\n        /* \"#utility.yul\":4713:4714   */\n      dup2\n        /* \"#utility.yul\":4707:4711   */\n      dup2\n        /* \"#utility.yul\":4704:4715   */\n      gt\n        /* \"#utility.yul\":4701:4738   */\n      iszero\n      tag_123\n      jumpi\n        /* \"#utility.yul\":4718:4736   */\n      tag_124\n      tag_71\n      jump\t// in\n    tag_124:\n        /* \"#utility.yul\":4701:4738   */\n    tag_123:\n        /* \"#utility.yul\":4551:4745   */\n      swap3\n      swap2\n      pop\n      pop\n      jump\t// out\n        /* \"#utility.yul\":4751:4931   */\n    tag_52:\n        /* \"#utility.yul\":4799:4876   */\n      0x4e487b7100000000000000000000000000000000000000000000000000000000\n        /* \"#utility.yul\":4796:4797   */\n      0x00\n        /* \"#utility.yul\":4789:4877   */\n      mstore\n        /* \"#utility.yul\":4896:4900   */\n      0x31\n        /* \"#utility.yul\":4893:4894   */\n      0x04\n        /* \"#utility.yul\":4886:4901   */\n      mstore\n        /* \"#utility.yul\":4920:4924   */\n      0x24\n        /* \"#utility.yul\":4917:4918   */\n      0x00\n        /* \"#utility.yul\":4910:4925   */\n      revert\n\n    auxdata: 0xa264697066735822122044bd30d26e344d18b10f32c1cd6e4bd0296011559cee5c289c36e85eb3ecddb964736f6c634300081e0033\n}\n",
				"bytecode": {
					"linkReferences": {},
					"object": "6080604052348015600e575f5ffd5b50610a6a8061001c5f395ff3fe608060405234801561000f575f5ffd5b5060043610610049575f3560e01c8062f3ad531461004d57806362e1f7451461006b57806370284d191461009b57806374a8f103146100b7575b5f5ffd5b6100556100d3565b6040516100629190610887565b60405180910390f35b610085600480360381019061008091906108d5565b610199565b604051610092919061092d565b60405180910390f35b6100b560048036038101906100b09190610946565b610263565b005b6100d160048036038101906100cc9190610946565b610473565b005b606060015f3373ffffffffffffffffffffffffffffffffffffffff1673ffffffffffffffffffffffffffffffffffffffff1681526020019081526020015f2080548060200260200160405190810160405280929190818152602001828054801561018f57602002820191905f5260205f20905b815f9054906101000a900473ffffffffffffffffffffffffffffffffffffffff1673ffffffffffffffffffffffffffffffffffffffff1681526020019060010190808311610146575b5050505050905090565b5f8173ffffffffffffffffffffffffffffffffffffffff168373ffffffffffffffffffffffffffffffffffffffff16036101d6576001905061025d565b5f5f8473ffffffffffffffffffffffffffffffffffffffff1673ffffffffffffffffffffffffffffffffffffffff1681526020019081526020015f205f8373ffffffffffffffffffffffffffffffffffffffff1673ffffffffffffffffffffffffffffffffffffffff1681526020019081526020015f205f9054906101000a900460ff1690505b92915050565b5f5f3373ffffffffffffffffffffffffffffffffffffffff1673ffffffffffffffffffffffffffffffffffffffff1681526020019081526020015f205f8273ffffffffffffffffffffffffffffffffffffffff1673ffffffffffffffffffffffffffffffffffffffff1681526020019081526020015f205f9054906101000a900460ff166104705760015f5f3373ffffffffffffffffffffffffffffffffffffffff1673ffffffffffffffffffffffffffffffffffffffff1681526020019081526020015f205f8373ffffffffffffffffffffffffffffffffffffffff1673ffffffffffffffffffffffffffffffffffffffff1681526020019081526020015f205f6101000a81548160ff02191690831515021790555060015f3373ffffffffffffffffffffffffffffffffffffffff1673ffffffffffffffffffffffffffffffffffffffff1681526020019081526020015f2081908060018154018082558091505060019003905f5260205f20015f9091909190916101000a81548173ffffffffffffffffffffffffffffffffffffffff021916908373ffffffffffffffffffffffffffffffffffffffff1602179055508073ffffffffffffffffffffffffffffffffffffffff163373ffffffffffffffffffffffffffffffffffffffff167f9f520b3bfc56d06f7065d10b4683b3f57ac8895d5026cd176dee95ce1454cb8d60405160405180910390a35b50565b5f5f3373ffffffffffffffffffffffffffffffffffffffff1673ffffffffffffffffffffffffffffffffffffffff1681526020019081526020015f205f8273ffffffffffffffffffffffffffffffffffffffff1673ffffffffffffffffffffffffffffffffffffffff1681526020019081526020015f205f9054906101000a900460ff161561079d575f5f5f3373ffffffffffffffffffffffffffffffffffffffff1673ffffffffffffffffffffffffffffffffffffffff1681526020019081526020015f205f8373ffffffffffffffffffffffffffffffffffffffff1673ffffffffffffffffffffffffffffffffffffffff1681526020019081526020015f205f6101000a81548160ff0219169083151502179055505f60015f3373ffffffffffffffffffffffffffffffffffffffff1673ffffffffffffffffffffffffffffffffffffffff1681526020019081526020015f2090505f5f90505b8180549050811015610740578273ffffffffffffffffffffffffffffffffffffffff1682828154811061060557610604610971565b5b905f5260205f20015f9054906101000a900473ffffffffffffffffffffffffffffffffffffffff1673ffffffffffffffffffffffffffffffffffffffff160361073357816001838054905061065a91906109d4565b8154811061066b5761066a610971565b5b905f5260205f20015f9054906101000a900473ffffffffffffffffffffffffffffffffffffffff168282815481106106a6576106a5610971565b5b905f5260205f20015f6101000a81548173ffffffffffffffffffffffffffffffffffffffff021916908373ffffffffffffffffffffffffffffffffffffffff160217905550818054806106fc576106fb610a07565b5b600190038181905f5260205f20015f6101000a81549073ffffffffffffffffffffffffffffffffffffffff02191690559055610740565b80806001019150506105cf565b508173ffffffffffffffffffffffffffffffffffffffff163373ffffffffffffffffffffffffffffffffffffffff167f825c8be24eb0df19500f63e86c29e7d0d951e73056b889b891d85e40938d9b6e60405160405180910390a3505b50565b5f81519050919050565b5f82825260208201905092915050565b5f819050602082019050919050565b5f73ffffffffffffffffffffffffffffffffffffffff82169050919050565b5f6107f2826107c9565b9050919050565b610802816107e8565b82525050565b5f61081383836107f9565b60208301905092915050565b5f602082019050919050565b5f610835826107a0565b61083f81856107aa565b935061084a836107ba565b805f5b8381101561087a5781516108618882610808565b975061086c8361081f565b92505060018101905061084d565b5085935050505092915050565b5f6020820190508181035f83015261089f818461082b565b905092915050565b5f5ffd5b6108b4816107e8565b81146108be575f5ffd5b50565b5f813590506108cf816108ab565b92915050565b5f5f604083850312156108eb576108ea6108a7565b5b5f6108f8858286016108c1565b9250506020610909858286016108c1565b9150509250929050565b5f8115159050919050565b61092781610913565b82525050565b5f6020820190506109405f83018461091e565b92915050565b5f6020828403121561095b5761095a6108a7565b5b5f610968848285016108c1565b91505092915050565b7f4e487b71000000000000000000000000000000000000000000000000000000005f52603260045260245ffd5b5f819050919050565b7f4e487b71000000000000000000000000000000000000000000000000000000005f52601160045260245ffd5b5f6109de8261099e565b91506109e98361099e565b9250828203905081811115610a0157610a006109a7565b5b92915050565b7f4e487b71000000000000000000000000000000000000000000000000000000005f52603160045260245ffdfea264697066735822122044bd30d26e344d18b10f32c1cd6e4bd0296011559cee5c289c36e85eb3ecddb964736f6c634300081e0033",
					"opcodes": "PUSH1 0x80 PUSH1 0x40 MSTORE CALLVALUE DUP1 ISZERO PUSH1 0xE JUMPI PUSH0 PUSH0 REVERT JUMPDEST POP PUSH2 0xA6A DUP1 PUSH2 0x1C PUSH0 CODECOPY PUSH0 RETURN INVALID PUSH1 0x80 PUSH1 0x40 MSTORE CALLVALUE DUP1 ISZERO PUSH2 0xF JUMPI PUSH0 PUSH0 REVERT JUMPDEST POP PUSH1 0x4 CALLDATASIZE LT PUSH2 0x49 JUMPI PUSH0 CALLDATALOAD PUSH1 0xE0 SHR DUP1 PUSH3 0xF3AD53 EQ PUSH2 0x4D JUMPI DUP1 PUSH4 0x62E1F745 EQ PUSH2 0x6B JUMPI DUP1 PUSH4 0x70284D19 EQ PUSH2 0x9B JUMPI DUP1 PUSH4 0x74A8F103 EQ PUSH2 0xB7 JUMPI JUMPDEST PUSH0 PUSH0 REVERT JUMPDEST PUSH2 0x55 PUSH2 0xD3 JUMP JUMPDEST PUSH1 0x40 MLOAD PUSH2 0x62 SWAP2 SWAP1 PUSH2 0x887 JUMP JUMPDEST PUSH1 0x40 MLOAD DUP1 SWAP2 SUB SWAP1 RETURN JUMPDEST PUSH2 0x85 PUSH1 0x4 DUP1 CALLDATASIZE SUB DUP2 ADD SWAP1 PUSH2 0x80 SWAP2 SWAP1 PUSH2 0x8D5 JUMP JUMPDEST PUSH2 0x199 JUMP JUMPDEST PUSH1 0x40 MLOAD PUSH2 0x92 SWAP2 SWAP1 PUSH2 0x92D JUMP JUMPDEST PUSH1 0x40 MLOAD DUP1 SWAP2 SUB SWAP1 RETURN JUMPDEST PUSH2 0xB5 PUSH1 0x4 DUP1 CALLDATASIZE SUB DUP2 ADD SWAP1 PUSH2 0xB0 SWAP2 SWAP1 PUSH2 0x946 JUMP JUMPDEST PUSH2 0x263 JUMP JUMPDEST STOP JUMPDEST PUSH2 0xD1 PUSH1 0x4 DUP1 CALLDATASIZE SUB DUP2 ADD SWAP1 PUSH2 0xCC SWAP2 SWAP1 PUSH2 0x946 JUMP JUMPDEST PUSH2 0x473 JUMP JUMPDEST STOP JUMPDEST PUSH1 0x60 PUSH1 0x1 PUSH0 CALLER PUSH20 0xFFFFFFFFFFFFFFFFFFFFFFFFFFFFFFFFFFFFFFFF AND PUSH20 0xFFFFFFFFFFFFFFFFFFFFFFFFFFFFFFFFFFFFFFFF AND DUP2 MSTORE PUSH1 0x20 ADD SWAP1 DUP2 MSTORE PUSH1 0x20 ADD PUSH0 KECCAK256 DUP1 SLOAD DUP1 PUSH1 0x20 MUL PUSH1 0x20 ADD PUSH1 0x40 MLOAD SWAP1 DUP2 ADD PUSH1 0x40 MSTORE DUP1 SWAP3 SWAP2 SWAP1 DUP2 DUP2 MSTORE PUSH1 0x20 ADD DUP3 DUP1 SLOAD DUP1 ISZERO PUSH2 0x18F JUMPI PUSH1 0x20 MUL DUP3 ADD SWAP2 SWAP1 PUSH0 MSTORE PUSH1 0x20 PUSH0 KECCAK256 SWAP1 JUMPDEST DUP2 PUSH0 SWAP1 SLOAD SWAP1 PUSH2 0x100 EXP SWAP1 DIV PUSH20 0xFFFFFFFFFFFFFFFFFFFFFFFFFFFFFFFFFFFFFFFF AND PUSH20 0xFFFFFFFFFFFFFFFFFFFFFFFFFFFFFFFFFFFFFFFF AND DUP2 MSTORE PUSH1 0x20 ADD SWAP1 PUSH1 0x1 ADD SWAP1 DUP1 DUP4 GT PUSH2 0x146 JUMPI JUMPDEST POP POP POP POP POP SWAP1 POP SWAP1 JUMP JUMPDEST PUSH0 DUP2 PUSH20 0xFFFFFFFFFFFFFFFFFFFFFFFFFFFFFFFFFFFFFFFF AND DUP4 PUSH20 0xFFFFFFFFFFFFFFFFFFFFFFFFFFFFFFFFFFFFFFFF AND SUB PUSH2 0x1D6 JUMPI PUSH1 0x1 SWAP1 POP PUSH2 0x25D JUMP JUMPDEST PUSH0 PUSH0 DUP5 PUSH20 0xFFFFFFFFFFFFFFFFFFFFFFFFFFFFFFFFFFFFFFFF AND PUSH20 0xFFFFFFFFFFFFFFFFFFFFFFFFFFFFFFFFFFFFFFFF AND DUP2 MSTORE PUSH1 0x20 ADD SWAP1 DUP2 MSTORE PUSH1 0x20 ADD PUSH0 KECCAK256 PUSH0 DUP4 PUSH20 0xFFFFFFFFFFFFFFFFFFFFFFFFFFFFFFFFFFFFFFFF AND PUSH20 0xFFFFFFFFFFFFFFFFFFFFFFFFFFFFFFFFFFFFFFFF AND DUP2 MSTORE PUSH1 0x20 ADD SWAP1 DUP2 MSTORE PUSH1 0x20 ADD PUSH0 KECCAK256 PUSH0 SWAP1 SLOAD SWAP1 PUSH2 0x100 EXP SWAP1 DIV PUSH1 0xFF AND SWAP1 POP JUMPDEST SWAP3 SWAP2 POP POP JUMP JUMPDEST PUSH0 PUSH0 CALLER PUSH20 0xFFFFFFFFFFFFFFFFFFFFFFFFFFFFFFFFFFFFFFFF AND PUSH20 0xFFFFFFFFFFFFFFFFFFFFFFFFFFFFFFFFFFFFFFFF AND DUP2 MSTORE PUSH1 0x20 ADD SWAP1 DUP2 MSTORE PUSH1 0x20 ADD PUSH0 KECCAK256 PUSH0 DUP3 PUSH20 0xFFFFFFFFFFFFFFFFFFFFFFFFFFFFFFFFFFFFFFFF AND PUSH20 0xFFFFFFFFFFFFFFFFFFFFFFFFFFFFFFFFFFFFFFFF AND DUP2 MSTORE PUSH1 0x20 ADD SWAP1 DUP2 MSTORE PUSH1 0x20 ADD PUSH0 KECCAK256 PUSH0 SWAP1 SLOAD SWAP1 PUSH2 0x100 EXP SWAP1 DIV PUSH1 0xFF AND PUSH2 0x470 JUMPI PUSH1 0x1 PUSH0 PUSH0 CALLER PUSH20 0xFFFFFFFFFFFFFFFFFFFFFFFFFFFFFFFFFFFFFFFF AND PUSH20 0xFFFFFFFFFFFFFFFFFFFFFFFFFFFFFFFFFFFFFFFF AND DUP2 MSTORE PUSH1 0x20 ADD SWAP1 DUP2 MSTORE PUSH1 0x20 ADD PUSH0 KECCAK256 PUSH0 DUP4 PUSH20 0xFFFFFFFFFFFFFFFFFFFFFFFFFFFFFFFFFFFFFFFF AND PUSH20 0xFFFFFFFFFFFFFFFFFFFFFFFFFFFFFFFFFFFFFFFF AND DUP2 MSTORE PUSH1 0x20 ADD SWAP1 DUP2 MSTORE PUSH1 0x20 ADD PUSH0 KECCAK256 PUSH0 PUSH2 0x100 EXP DUP2 SLOAD DUP2 PUSH1 0xFF MUL NOT AND SWAP1 DUP4 ISZERO ISZERO MUL OR SWAP1 SSTORE POP PUSH1 0x1 PUSH0 CALLER PUSH20 0xFFFFFFFFFFFFFFFFFFFFFFFFFFFFFFFFFFFFFFFF AND PUSH20 0xFFFFFFFFFFFFFFFFFFFFFFFFFFFFFFFFFFFFFFFF AND DUP2 MSTORE PUSH1 0x20 ADD SWAP1 DUP2 MSTORE PUSH1 0x20 ADD PUSH0 KECCAK256 DUP2 SWAP1 DUP1 PUSH1 0x1 DUP2 SLOAD ADD DUP1 DUP3 SSTORE DUP1 SWAP2 POP POP PUSH1 0x1 SWAP1 SUB SWAP1 PUSH0 MSTORE PUSH1 0x20 PUSH0 KECCAK256 ADD PUSH0 SWAP1 SWAP2 SWAP1 SWAP2 SWAP1 SWAP2 PUSH2 0x100 EXP DUP2 SLOAD DUP2 PUSH20 0xFFFFFFFFFFFFFFFFFFFFFFFFFFFFFFFFFFFFFFFF MUL NOT AND SWAP1 DUP4 PUSH20 0xFFFFFFFFFFFFFFFFFFFFFFFFFFFFFFFFFFFFFFFF AND MUL OR SWAP1 SSTORE POP DUP1 PUSH20 0xFFFFFFFFFFFFFFFFFFFFFFFFFFFFFFFFFFFFFFFF AND CALLER PUSH20 0xFFFFFFFFFFFFFFFFFFFFFFFFFFFFFFFFFFFFFFFF AND PUSH32 0x9F520B3BFC56D06F7065D10B4683B3F57AC8895D5026CD176DEE95CE1454CB8D PUSH1 0x40 MLOAD PUSH1 0x40 MLOAD DUP1 SWAP2 SUB SWAP1 LOG3 JUMPDEST POP JUMP JUMPDEST PUSH0 PUSH0 CALLER PUSH20 0xFFFFFFFFFFFFFFFFFFFFFFFFFFFFFFFFFFFFFFFF AND PUSH20 0xFFFFFFFFFFFFFFFFFFFFFFFFFFFFFFFFFFFFFFFF AND DUP2 MSTORE PUSH1 0x20 ADD SWAP1 DUP2 MSTORE PUSH1 0x20 ADD PUSH0 KECCAK256 PUSH0 DUP3 PUSH20 0xFFFFFFFFFFFFFFFFFFFFFFFFFFFFFFFFFFFFFFFF AND PUSH20 0xFFFFFFFFFFFFFFFFFFFFFFFFFFFFFFFFFFFFFFFF AND DUP2 MSTORE PUSH1 0x20 ADD SWAP1 DUP2 MSTORE PUSH1 0x20 ADD PUSH0 KECCAK256 PUSH0 SWAP1 SLOAD SWAP1 PUSH2 0x100 EXP SWAP1 DIV PUSH1 0xFF AND ISZERO PUSH2 0x79D JUMPI PUSH0 PUSH0 PUSH0 CALLER PUSH20 0xFFFFFFFFFFFFFFFFFFFFFFFFFFFFFFFFFFFFFFFF AND PUSH20 0xFFFFFFFFFFFFFFFFFFFFFFFFFFFFFFFFFFFFFFFF AND DUP2 MSTORE PUSH1 0x20 ADD SWAP1 DUP2 MSTORE PUSH1 0x20 ADD PUSH0 KECCAK256 PUSH0 DUP4 PUSH20 0xFFFFFFFFFFFFFFFFFFFFFFFFFFFFFFFFFFFFFFFF AND PUSH20 0xFFFFFFFFFFFFFFFFFFFFFFFFFFFFFFFFFFFFFFFF AND DUP2 MSTORE PUSH1 0x20 ADD SWAP1 DUP2 MSTORE PUSH1 0x20 ADD PUSH0 KECCAK256 PUSH0 PUSH2 0x100 EXP DUP2 SLOAD DUP2 PUSH1 0xFF MUL NOT AND SWAP1 DUP4 ISZERO ISZERO MUL OR SWAP1 SSTORE POP PUSH0 PUSH1 0x1 PUSH0 CALLER PUSH20 0xFFFFFFFFFFFFFFFFFFFFFFFFFFFFFFFFFFFFFFFF AND PUSH20 0xFFFFFFFFFFFFFFFFFFFFFFFFFFFFFFFFFFFFFFFF AND DUP2 MSTORE PUSH1 0x20 ADD SWAP1 DUP2 MSTORE PUSH1 0x20 ADD PUSH0 KECCAK256 SWAP1 POP PUSH0 PUSH0 SWAP1 POP JUMPDEST DUP2 DUP1 SLOAD SWAP1 POP DUP2 LT ISZERO PUSH2 0x740 JUMPI DUP3 PUSH20 0xFFFFFFFFFFFFFFFFFFFFFFFFFFFFFFFFFFFFFFFF AND DUP3 DUP3 DUP2 SLOAD DUP2 LT PUSH2 0x605 JUMPI PUSH2 0x604 PUSH2 0x971 JUMP JUMPDEST JUMPDEST SWAP1 PUSH0 MSTORE PUSH1 0x20 PUSH0 KECCAK256 ADD PUSH0 SWAP1 SLOAD SWAP1 PUSH2 0x100 EXP SWAP1 DIV PUSH20 0xFFFFFFFFFFFFFFFFFFFFFFFFFFFFFFFFFFFFFFFF AND PUSH20 0xFFFFFFFFFFFFFFFFFFFFFFFFFFFFFFFFFFFFFFFF AND SUB PUSH2 0x733 JUMPI DUP2 PUSH1 0x1 DUP4 DUP1 SLOAD SWAP1 POP PUSH2 0x65A SWAP2 SWAP1 PUSH2 0x9D4 JUMP JUMPDEST DUP2 SLOAD DUP2 LT PUSH2 0x66B JUMPI PUSH2 0x66A PUSH2 0x971 JUMP JUMPDEST JUMPDEST SWAP1 PUSH0 MSTORE PUSH1 0x20 PUSH0 KECCAK256 ADD PUSH0 SWAP1 SLOAD SWAP1 PUSH2 0x100 EXP SWAP1 DIV PUSH20 0xFFFFFFFFFFFFFFFFFFFFFFFFFFFFFFFFFFFFFFFF AND DUP3 DUP3 DUP2 SLOAD DUP2 LT PUSH2 0x6A6 JUMPI PUSH2 0x6A5 PUSH2 0x971 JUMP JUMPDEST JUMPDEST SWAP1 PUSH0 MSTORE PUSH1 0x20 PUSH0 KECCAK256 ADD PUSH0 PUSH2 0x100 EXP DUP2 SLOAD DUP2 PUSH20 0xFFFFFFFFFFFFFFFFFFFFFFFFFFFFFFFFFFFFFFFF MUL NOT AND SWAP1 DUP4 PUSH20 0xFFFFFFFFFFFFFFFFFFFFFFFFFFFFFFFFFFFFFFFF AND MUL OR SWAP1 SSTORE POP DUP2 DUP1 SLOAD DUP1 PUSH2 0x6FC JUMPI PUSH2 0x6FB PUSH2 0xA07 JUMP JUMPDEST JUMPDEST PUSH1 0x1 SWAP1 SUB DUP2 DUP2 SWAP1 PUSH0 MSTORE PUSH1 0x20 PUSH0 KECCAK256 ADD PUSH0 PUSH2 0x100 EXP DUP2 SLOAD SWAP1 PUSH20 0xFFFFFFFFFFFFFFFFFFFFFFFFFFFFFFFFFFFFFFFF MUL NOT AND SWAP1 SSTORE SWAP1 SSTORE PUSH2 0x740 JUMP JUMPDEST DUP1 DUP1 PUSH1 0x1 ADD SWAP2 POP POP PUSH2 0x5CF JUMP JUMPDEST POP DUP2 PUSH20 0xFFFFFFFFFFFFFFFFFFFFFFFFFFFFFFFFFFFFFFFF AND CALLER PUSH20 0xFFFFFFFFFFFFFFFFFFFFFFFFFFFFFFFFFFFFFFFF AND PUSH32 0x825C8BE24EB0DF19500F63E86C29E7D0D951E73056B889B891D85E40938D9B6E PUSH1 0x40 MLOAD PUSH1 0x40 MLOAD DUP1 SWAP2 SUB SWAP1 LOG3 POP JUMPDEST POP JUMP JUMPDEST PUSH0 DUP2 MLOAD SWAP1 POP SWAP2 SWAP1 POP JUMP JUMPDEST PUSH0 DUP3 DUP3 MSTORE PUSH1 0x20 DUP3 ADD SWAP1 POP SWAP3 SWAP2 POP POP JUMP JUMPDEST PUSH0 DUP2 SWAP1 POP PUSH1 0x20 DUP3 ADD SWAP1 POP SWAP2 SWAP1 POP JUMP JUMPDEST PUSH0 PUSH20 0xFFFFFFFFFFFFFFFFFFFFFFFFFFFFFFFFFFFFFFFF DUP3 AND SWAP1 POP SWAP2 SWAP1 POP JUMP JUMPDEST PUSH0 PUSH2 0x7F2 DUP3 PUSH2 0x7C9 JUMP JUMPDEST SWAP1 POP SWAP2 SWAP1 POP JUMP JUMPDEST PUSH2 0x802 DUP2 PUSH2 0x7E8 JUMP JUMPDEST DUP3 MSTORE POP POP JUMP JUMPDEST PUSH0 PUSH2 0x813 DUP4 DUP4 PUSH2 0x7F9 JUMP JUMPDEST PUSH1 0x20 DUP4 ADD SWAP1 POP SWAP3 SWAP2 POP POP JUMP JUMPDEST PUSH0 PUSH1 0x20 DUP3 ADD SWAP1 POP SWAP2 SWAP1 POP JUMP JUMPDEST PUSH0 PUSH2 0x835 DUP3 PUSH2 0x7A0 JUMP JUMPDEST PUSH2 0x83F DUP2 DUP6 PUSH2 0x7AA JUMP JUMPDEST SWAP4 POP PUSH2 0x84A DUP4 PUSH2 0x7BA JUMP JUMPDEST DUP1 PUSH0 JUMPDEST DUP4 DUP2 LT ISZERO PUSH2 0x87A JUMPI DUP2 MLOAD PUSH2 0x861 DUP9 DUP3 PUSH2 0x808 JUMP JUMPDEST SWAP8 POP PUSH2 0x86C DUP4 PUSH2 0x81F JUMP JUMPDEST SWAP3 POP POP PUSH1 0x1 DUP2 ADD SWAP1 POP PUSH2 0x84D JUMP JUMPDEST POP DUP6 SWAP4 POP POP POP POP SWAP3 SWAP2 POP POP JUMP JUMPDEST PUSH0 PUSH1 0x20 DUP3 ADD SWAP1 POP DUP2 DUP2 SUB PUSH0 DUP4 ADD MSTORE PUSH2 0x89F DUP2 DUP5 PUSH2 0x82B JUMP JUMPDEST SWAP1 POP SWAP3 SWAP2 POP POP JUMP JUMPDEST PUSH0 PUSH0 REVERT JUMPDEST PUSH2 0x8B4 DUP2 PUSH2 0x7E8 JUMP JUMPDEST DUP2 EQ PUSH2 0x8BE JUMPI PUSH0 PUSH0 REVERT JUMPDEST POP JUMP JUMPDEST PUSH0 DUP2 CALLDATALOAD SWAP1 POP PUSH2 0x8CF DUP2 PUSH2 0x8AB JUMP JUMPDEST SWAP3 SWAP2 POP POP JUMP JUMPDEST PUSH0 PUSH0 PUSH1 0x40 DUP4 DUP6 SUB SLT ISZERO PUSH2 0x8EB JUMPI PUSH2 0x8EA PUSH2 0x8A7 JUMP JUMPDEST JUMPDEST PUSH0 PUSH2 0x8F8 DUP6 DUP3 DUP7 ADD PUSH2 0x8C1 JUMP JUMPDEST SWAP3 POP POP PUSH1 0x20 PUSH2 0x909 DUP6 DUP3 DUP7 ADD PUSH2 0x8C1 JUMP JUMPDEST SWAP2 POP POP SWAP3 POP SWAP3 SWAP1 POP JUMP JUMPDEST PUSH0 DUP2 ISZERO ISZERO SWAP1 POP SWAP2 SWAP1 POP JUMP JUMPDEST PUSH2 0x927 DUP2 PUSH2 0x913 JUMP JUMPDEST DUP3 MSTORE POP POP JUMP JUMPDEST PUSH0 PUSH1 0x20 DUP3 ADD SWAP1 POP PUSH2 0x940 PUSH0 DUP4 ADD DUP5 PUSH2 0x91E JUMP JUMPDEST SWAP3 SWAP2 POP POP JUMP JUMPDEST PUSH0 PUSH1 0x20 DUP3 DUP5 SUB SLT ISZERO PUSH2 0x95B JUMPI PUSH2 0x95A PUSH2 0x8A7 JUMP JUMPDEST JUMPDEST PUSH0 PUSH2 0x968 DUP5 DUP3 DUP6 ADD PUSH2 0x8C1 JUMP JUMPDEST SWAP2 POP POP SWAP3 SWAP2 POP POP JUMP JUMPDEST PUSH32 0x4E487B7100000000000000000000000000000000000000000000000000000000 PUSH0 MSTORE PUSH1 0x32 PUSH1 0x4 MSTORE PUSH1 0x24 PUSH0 REVERT JUMPDEST PUSH0 DUP2 SWAP1 POP SWAP2 SWAP1 POP JUMP JUMPDEST PUSH32 0x4E487B7100000000000000000000000000000000000000000000000000000000 PUSH0 MSTORE PUSH1 0x11 PUSH1 0x4 MSTORE PUSH1 0x24 PUSH0 REVERT JUMPDEST PUSH0 PUSH2 0x9DE DUP3 PUSH2 0x99E JUMP JUMPDEST SWAP2 POP PUSH2 0x9E9 DUP4 PUSH2 0x99E JUMP JUMPDEST SWAP3 POP DUP3 DUP3 SUB SWAP1 POP DUP2 DUP2 GT ISZERO PUSH2 0xA01 JUMPI PUSH2 0xA00 PUSH2 0x9A7 JUMP JUMPDEST JUMPDEST SWAP3 SWAP2 POP POP JUMP JUMPDEST PUSH32 0x4E487B7100000000000000000000000000000000000000000000000000000000 PUSH0 MSTORE PUSH1 0x31 PUSH1 0x4 MSTORE PUSH1 0x24 PUSH0 REVERT INVALID LOG2 PUSH5 0x6970667358 0x22 SLT KECCAK256 PREVRANDAO 0xBD ADDRESS 0xD2 PUSH15 0x344D18B10F32C1CD6E4BD029601155 SWAP13 RETURNCONTRACT 0x5C 0x28 SWAP13 CALLDATASIZE 0xE8 MCOPY 0xB3 EOFCREATE 0xDD 0xB9 PUSH5 0x736F6C6343 STOP ADDMOD 0x1E STOP CALLER "
				},
				"gasEstimates": {
					"creation": {
						"codeDepositCost": "533200",
						"executionCost": "566",
						"totalCost": "533766"
					},
					"external": {
						"checkAccess(address,address)": "infinite",
						"getGrantedDoctors()": "infinite",
						"grant(address)": "77444",
						"revoke(address)": "infinite"
					}
				},
				"methodIdentifiers": {
					"checkAccess(address,address)": "62e1f745",
					"getGrantedDoctors()": "00f3ad53",
					"grant(address)": "70284d19",
					"revoke(address)": "74a8f103"
				}
			},
			"storageLayout": {
				"storage": [
					{
						"astId": 147,
						"contract": "contracts/access/AccessControl.sol:AccessControl",
						"label": "access",
						"offset": 0,
						"slot": "0",
						"type": "t_mapping(t_address,t_mapping(t_address,t_bool))"
					},
					{
						"astId": 152,
						"contract": "contracts/access/AccessControl.sol:AccessControl",
						"label": "grantedDoctors",
						"offset": 0,
						"slot": "1",
						"type": "t_mapping(t_address,t_array(t_address)dyn_storage)"
					}
				],
				"types": {
					"t_address": {
						"encoding": "inplace",
						"label": "address",
						"numberOfBytes": "20"
					},
					"t_array(t_address)dyn_storage": {
						"base": "t_address",
						"encoding": "dynamic_array",
						"label": "address[]",
						"numberOfBytes": "32"
					},
					"t_bool": {
						"encoding": "inplace",
						"label": "bool",
						"numberOfBytes": "1"
					},
					"t_mapping(t_address,t_array(t_address)dyn_storage)": {
						"encoding": "mapping",
						"key": "t_address",
						"label": "mapping(address => address[])",
						"numberOfBytes": "32",
						"value": "t_array(t_address)dyn_storage"
					},
					"t_mapping(t_address,t_bool)": {
						"encoding": "mapping",
						"key": "t_address",
						"label": "mapping(address => bool)",
						"numberOfBytes": "32",
						"value": "t_bool"
					},
					"t_mapping(t_address,t_mapping(t_address,t_bool))": {
						"encoding": "mapping",
						"key": "t_address",
						"label": "mapping(address => mapping(address => bool))",
						"numberOfBytes": "32",
						"value": "t_mapping(t_address,t_bool)"
					}
				}
			},
			"userdoc": {
				"kind": "user",
				"methods": {},
				"version": 1
			}
		}
	}
}